{
  "_format": "hh-sol-artifact-1",
  "contractName": "PortfolioAttestation",
  "sourceName": "contracts/PortfolioAttestation.sol",
  "abi": [
    {
      "inputs": [],
      "stateMutability": "nonpayable",
      "type": "constructor"
    },
    {
      "inputs": [
        {
          "internalType": "address",
          "name": "target",
          "type": "address"
        }
      ],
      "name": "AddressEmptyCode",
      "type": "error"
    },
    {
      "inputs": [
        {
          "internalType": "address",
          "name": "implementation",
          "type": "address"
        }
      ],
      "name": "ERC1967InvalidImplementation",
      "type": "error"
    },
    {
      "inputs": [],
      "name": "ERC1967NonPayable",
      "type": "error"
    },
    {
      "inputs": [],
      "name": "FailedCall",
      "type": "error"
    },
    {
      "inputs": [],
      "name": "InvalidInitialization",
      "type": "error"
    },
    {
      "inputs": [],
      "name": "NotInitializing",
      "type": "error"
    },
    {
      "inputs": [],
      "name": "UUPSUnauthorizedCallContext",
      "type": "error"
    },
    {
      "inputs": [
        {
          "internalType": "bytes32",
          "name": "slot",
          "type": "bytes32"
        }
      ],
      "name": "UUPSUnsupportedProxiableUUID",
      "type": "error"
    },
    {
      "anonymous": false,
      "inputs": [
        {
          "indexed": false,
          "internalType": "uint256",
          "name": "oldFee",
          "type": "uint256"
        },
        {
          "indexed": false,
          "internalType": "uint256",
          "name": "newFee",
          "type": "uint256"
        }
      ],
      "name": "FeeUpdated",
      "type": "event"
    },
    {
      "anonymous": false,
      "inputs": [
        {
          "indexed": false,
          "internalType": "uint64",
          "name": "version",
          "type": "uint64"
        }
      ],
      "name": "Initialized",
      "type": "event"
    },
    {
      "anonymous": false,
      "inputs": [
        {
          "indexed": true,
          "internalType": "address",
          "name": "oldOwner",
          "type": "address"
        },
        {
          "indexed": true,
          "internalType": "address",
          "name": "newOwner",
          "type": "address"
        }
      ],
      "name": "OwnerTransferred",
      "type": "event"
    },
    {
      "anonymous": false,
      "inputs": [
        {
          "indexed": true,
          "internalType": "address",
          "name": "wallet",
          "type": "address"
        },
        {
          "indexed": true,
          "internalType": "uint256",
          "name": "attestationId",
          "type": "uint256"
        },
        {
          "indexed": false,
          "internalType": "bytes32",
          "name": "merkleRoot",
          "type": "bytes32"
        },
        {
          "indexed": false,
          "internalType": "uint256",
          "name": "totalValueGun",
          "type": "uint256"
        },
        {
          "indexed": false,
          "internalType": "uint16",
          "name": "itemCount",
          "type": "uint16"
        },
        {
          "indexed": false,
          "internalType": "uint256",
          "name": "blockNumber",
          "type": "uint256"
        },
        {
          "indexed": false,
          "internalType": "string",
          "name": "metadataURI",
          "type": "string"
        }
      ],
      "name": "PortfolioAttested",
      "type": "event"
    },
    {
      "anonymous": false,
      "inputs": [
        {
          "indexed": true,
          "internalType": "address",
          "name": "implementation",
          "type": "address"
        }
      ],
      "name": "Upgraded",
      "type": "event"
    },
    {
      "inputs": [],
      "name": "UPGRADE_INTERFACE_VERSION",
      "outputs": [
        {
          "internalType": "string",
          "name": "",
          "type": "string"
        }
      ],
      "stateMutability": "view",
      "type": "function"
    },
    {
      "inputs": [
        {
          "internalType": "uint256",
          "name": "blockNumber",
          "type": "uint256"
        },
        {
          "internalType": "bytes32",
          "name": "merkleRoot",
          "type": "bytes32"
        },
        {
          "internalType": "uint256",
          "name": "totalValueGun",
          "type": "uint256"
        },
        {
          "internalType": "uint16",
          "name": "itemCount",
          "type": "uint16"
        },
        {
          "internalType": "string",
          "name": "metadataURI",
          "type": "string"
        }
      ],
      "name": "attest",
      "outputs": [
        {
          "internalType": "uint256",
          "name": "attestationId",
          "type": "uint256"
        }
      ],
      "stateMutability": "payable",
      "type": "function"
    },
    {
      "inputs": [],
      "name": "attestFee",
      "outputs": [
        {
          "internalType": "uint256",
          "name": "",
          "type": "uint256"
        }
      ],
      "stateMutability": "view",
      "type": "function"
    },
    {
      "inputs": [
        {
          "internalType": "address",
          "name": "wallet",
          "type": "address"
        },
        {
          "internalType": "uint256",
          "name": "index",
          "type": "uint256"
        }
      ],
      "name": "getAttestation",
      "outputs": [
        {
          "components": [
            {
              "internalType": "uint256",
              "name": "blockNumber",
              "type": "uint256"
            },
            {
              "internalType": "bytes32",
              "name": "merkleRoot",
              "type": "bytes32"
            },
            {
              "internalType": "uint256",
              "name": "totalValueGun",
              "type": "uint256"
            },
            {
              "internalType": "uint16",
              "name": "itemCount",
              "type": "uint16"
            },
            {
              "internalType": "uint48",
              "name": "timestamp",
              "type": "uint48"
            },
            {
              "internalType": "string",
              "name": "metadataURI",
              "type": "string"
            }
          ],
          "internalType": "struct PortfolioAttestation.Attestation",
          "name": "",
          "type": "tuple"
        }
      ],
      "stateMutability": "view",
      "type": "function"
    },
    {
      "inputs": [
        {
          "internalType": "address",
          "name": "wallet",
          "type": "address"
        }
      ],
      "name": "getAttestationCount",
      "outputs": [
        {
          "internalType": "uint256",
          "name": "",
          "type": "uint256"
        }
      ],
      "stateMutability": "view",
      "type": "function"
    },
    {
      "inputs": [
        {
          "internalType": "address",
          "name": "wallet",
          "type": "address"
        }
      ],
      "name": "getLatestAttestation",
      "outputs": [
        {
          "components": [
            {
              "internalType": "uint256",
              "name": "blockNumber",
              "type": "uint256"
            },
            {
              "internalType": "bytes32",
              "name": "merkleRoot",
              "type": "bytes32"
            },
            {
              "internalType": "uint256",
              "name": "totalValueGun",
              "type": "uint256"
            },
            {
              "internalType": "uint16",
              "name": "itemCount",
              "type": "uint16"
            },
            {
              "internalType": "uint48",
              "name": "timestamp",
              "type": "uint48"
            },
            {
              "internalType": "string",
              "name": "metadataURI",
              "type": "string"
            }
          ],
          "internalType": "struct PortfolioAttestation.Attestation",
          "name": "",
          "type": "tuple"
        }
      ],
      "stateMutability": "view",
      "type": "function"
    },
    {
      "inputs": [
        {
          "internalType": "uint256",
          "name": "_attestFee",
          "type": "uint256"
        }
      ],
      "name": "initialize",
      "outputs": [],
      "stateMutability": "nonpayable",
      "type": "function"
    },
    {
      "inputs": [],
      "name": "owner",
      "outputs": [
        {
          "internalType": "address",
          "name": "",
          "type": "address"
        }
      ],
      "stateMutability": "view",
      "type": "function"
    },
    {
      "inputs": [],
      "name": "proxiableUUID",
      "outputs": [
        {
          "internalType": "bytes32",
          "name": "",
          "type": "bytes32"
        }
      ],
      "stateMutability": "view",
      "type": "function"
    },
    {
      "inputs": [
        {
          "internalType": "uint256",
          "name": "newFee",
          "type": "uint256"
        }
      ],
      "name": "setFee",
      "outputs": [],
      "stateMutability": "nonpayable",
      "type": "function"
    },
    {
      "inputs": [],
      "name": "totalAttestations",
      "outputs": [
        {
          "internalType": "uint256",
          "name": "",
          "type": "uint256"
        }
      ],
      "stateMutability": "view",
      "type": "function"
    },
    {
      "inputs": [],
      "name": "totalFeesCollected",
      "outputs": [
        {
          "internalType": "uint256",
          "name": "",
          "type": "uint256"
        }
      ],
      "stateMutability": "view",
      "type": "function"
    },
    {
      "inputs": [
        {
          "internalType": "address",
          "name": "newOwner",
          "type": "address"
        }
      ],
      "name": "transferOwnership",
      "outputs": [],
      "stateMutability": "nonpayable",
      "type": "function"
    },
    {
      "inputs": [
        {
          "internalType": "address",
          "name": "newImplementation",
          "type": "address"
        },
        {
          "internalType": "bytes",
          "name": "data",
          "type": "bytes"
        }
      ],
      "name": "upgradeToAndCall",
      "outputs": [],
      "stateMutability": "payable",
      "type": "function"
    },
    {
      "inputs": [
        {
          "internalType": "address",
          "name": "wallet",
          "type": "address"
        },
        {
          "internalType": "uint256",
          "name": "attestationIndex",
          "type": "uint256"
        },
        {
          "internalType": "bytes32",
          "name": "leaf",
          "type": "bytes32"
        },
        {
          "internalType": "bytes32[]",
          "name": "proof",
          "type": "bytes32[]"
        }
      ],
      "name": "verifyHolding",
      "outputs": [
        {
          "internalType": "bool",
          "name": "valid",
          "type": "bool"
        }
      ],
      "stateMutability": "view",
      "type": "function"
    },
    {
      "inputs": [],
      "name": "withdraw",
      "outputs": [],
      "stateMutability": "nonpayable",
      "type": "function"
    }
  ],
  "bytecode": "0x60a060405230608052348015610013575f5ffd5b5061001c610021565b6100d3565b7ff0c57e16840df040f15088dc2f81fe391c3923bec73e23a9662efc9c229c6a00805468010000000000000000900460ff16156100715760405163f92ee8a960e01b815260040160405180910390fd5b80546001600160401b03908116146100d05780546001600160401b0319166001600160401b0390811782556040519081527fc7f505b2f371ae2175ee4913f4499e1f2633a7b5936321eed1cdaeb6115181d29060200160405180910390a15b50565b6080516116f76100f95f395f8181610d5d01528181610d860152610ef001526116f75ff3fe6080604052600436106100ef575f3560e01c806368920aad11610087578063a9e5320d11610057578063a9e5320d1461026d578063ad3cb1cc1461029c578063f2fde38b146102d9578063fe4b84df146102f8575f5ffd5b806368920aad146101e657806369fe0e2d146101f9578063888e1c7d146102185780638da5cb5b14610237575f5ffd5b80635976a8c2116100c25780635976a8c214610173578063604857421461018857806360c6d8ae1461019d578063633c0bbc146101b2575f5ffd5b8063080f522c146100f35780633ccfd60b146101285780634f1ef2861461013e57806352d1902d14610151575b5f5ffd5b3480156100fe575f5ffd5b5061011261010d3660046111a5565b610317565b60405161011f91906111ec565b60405180910390f35b348015610133575f5ffd5b5061013c6104dd565b005b61013c61014c366004611260565b6105d7565b34801561015c575f5ffd5b506101656105f2565b60405190815260200161011f565b34801561017e575f5ffd5b5061016560015481565b348015610193575f5ffd5b5061016560035481565b3480156101a8575f5ffd5b5061016560045481565b3480156101bd575f5ffd5b506101656101cc3660046111a5565b6001600160a01b03165f9081526002602052604090205490565b6101656101f4366004611324565b61060d565b348015610204575f5ffd5b5061013c6102133660046113c6565b61087c565b348015610223575f5ffd5b506101126102323660046113dd565b6108e6565b348015610242575f5ffd5b505f54610255906001600160a01b031681565b6040516001600160a01b03909116815260200161011f565b348015610278575f5ffd5b5061028c610287366004611405565b610aa4565b604051901515815260200161011f565b3480156102a7575f5ffd5b506102cc604051806040016040528060058152602001640352e302e360dc1b81525081565b60405161011f9190611496565b3480156102e4575f5ffd5b5061013c6102f33660046111a5565b610b85565b348015610303575f5ffd5b5061013c6103123660046113c6565b610c4c565b6103576040518060c001604052805f81526020015f81526020015f81526020015f61ffff1681526020015f65ffffffffffff168152602001606081525090565b6001600160a01b0382165f90815260026020526040902054806103b35760405162461bcd60e51b815260206004820152600f60248201526e4e6f206174746573746174696f6e7360881b60448201526064015b60405180910390fd5b6001600160a01b0383165f9081526002602052604090206103d56001836114a8565b815481106103e5576103e56114c7565b5f9182526020918290206040805160c081018252600590930290910180548352600181015493830193909352600283015490820152600382015461ffff8116606083015265ffffffffffff6201000090910416608082015260048201805491929160a084019190610455906114db565b80601f0160208091040260200160405190810160405280929190818152602001828054610481906114db565b80156104cc5780601f106104a3576101008083540402835291602001916104cc565b820191905f5260205f20905b8154815290600101906020018083116104af57829003601f168201915b505050505081525050915050919050565b5f546001600160a01b031633146105065760405162461bcd60e51b81526004016103aa90611513565b47806105415760405162461bcd60e51b815260206004820152600a6024820152694e6f2062616c616e636560b01b60448201526064016103aa565b5f80546040516001600160a01b039091169083908381818185875af1925050503d805f811461058b576040519150601f19603f3d011682016040523d82523d5f602084013e610590565b606091505b50509050806105d35760405162461bcd60e51b815260206004820152600f60248201526e151c985b9cd9995c8819985a5b1959608a1b60448201526064016103aa565b5050565b6105df610d52565b6105e882610df8565b6105d38282610e24565b5f6105fb610ee5565b505f5160206116a25f395f51905f5290565b5f6001543410156106535760405162461bcd60e51b815260206004820152601060248201526f496e73756666696369656e742066656560801b60448201526064016103aa565b438711156106925760405162461bcd60e51b815260206004820152600c60248201526b46757475726520626c6f636b60a01b60448201526064016103aa565b856106d35760405162461bcd60e51b8152602060048201526011602482015270115b5c1d1e481b595c9adb19481c9bdbdd607a1b60448201526064016103aa565b816107155760405162461bcd60e51b8152602060048201526012602482015271456d707479206d657461646174612055524960701b60448201526064016103aa565b50335f908152600260209081526040918290208054835160c0810185528a81528084018a905280850189905261ffff8816606082015265ffffffffffff421660808201528451601f870185900485028101850190955285855290939192909160a083019187908790819084018382808284375f9201829052509390945250508354600181810186559482526020918290208451600590920201908155908301519381019390935550604081015160028301556060810151600383018054608084015165ffffffffffff16620100000267ffffffffffffffff1990911661ffff9093169290921791909117905560a081015190919060048201906108189082611581565b5050600380546001019055506004805434019055604051819033907ff4f7bb7e9fd7ef244e3fce597b41c86e1353898d2eb4f4929691bbaf47a1aa8f9061086a908a908a908a908e908b908b9061163c565b60405180910390a39695505050505050565b5f546001600160a01b031633146108a55760405162461bcd60e51b81526004016103aa90611513565b60015460408051918252602082018390527f528d9479e9f9889a87a3c30c7f7ba537e5e59c4c85a37733b16e57c62df61302910160405180910390a1600155565b6109266040518060c001604052805f81526020015f81526020015f81526020015f61ffff1681526020015f65ffffffffffff168152602001606081525090565b6001600160a01b0383165f9081526002602052604090205482106109825760405162461bcd60e51b8152602060048201526013602482015272496e646578206f7574206f6620626f756e647360681b60448201526064016103aa565b6001600160a01b0383165f9081526002602052604090208054839081106109ab576109ab6114c7565b5f9182526020918290206040805160c081018252600590930290910180548352600181015493830193909352600283015490820152600382015461ffff8116606083015265ffffffffffff6201000090910416608082015260048201805491929160a084019190610a1b906114db565b80601f0160208091040260200160405190810160405280929190818152602001828054610a47906114db565b8015610a925780601f10610a6957610100808354040283529160200191610a92565b820191905f5260205f20905b815481529060010190602001808311610a7557829003601f168201915b50505050508152505090505b92915050565b6001600160a01b0385165f908152600260205260408120548510610b005760405162461bcd60e51b8152602060048201526013602482015272496e646578206f7574206f6620626f756e647360681b60448201526064016103aa565b6001600160a01b0386165f908152600260205260408120805487908110610b2957610b296114c7565b905f5260205f209060050201600101549050610b7a8484808060200260200160405190810160405280939291908181526020018383602002808284375f92019190915250859250899150610f2e9050565b979650505050505050565b5f546001600160a01b03163314610bae5760405162461bcd60e51b81526004016103aa90611513565b6001600160a01b038116610bf35760405162461bcd60e51b815260206004820152600c60248201526b5a65726f206164647265737360a01b60448201526064016103aa565b5f80546040516001600160a01b03808516939216917f8934ce4adea8d9ce0d714d2c22b86790e41b7731c84b926fbbdc1d40ff6533c991a35f80546001600160a01b0319166001600160a01b0392909216919091179055565b5f610c55610f43565b805490915060ff600160401b820416159067ffffffffffffffff165f81158015610c7c5750825b90505f8267ffffffffffffffff166001148015610c985750303b155b905081158015610ca6575080155b15610cc45760405163f92ee8a960e01b815260040160405180910390fd5b845467ffffffffffffffff191660011785558315610cee57845460ff60401b1916600160401b1785555b5f80546001600160a01b0319163317905560018690558315610d4a57845460ff60401b19168555604051600181527fc7f505b2f371ae2175ee4913f4499e1f2633a7b5936321eed1cdaeb6115181d29060200160405180910390a15b505050505050565b306001600160a01b037f0000000000000000000000000000000000000000000000000000000000000000161480610dd857507f00000000000000000000000000000000000000000000000000000000000000006001600160a01b0316610dcc5f5160206116a25f395f51905f52546001600160a01b031690565b6001600160a01b031614155b15610df65760405163703e46dd60e11b815260040160405180910390fd5b565b5f546001600160a01b03163314610e215760405162461bcd60e51b81526004016103aa90611513565b50565b816001600160a01b03166352d1902d6040518163ffffffff1660e01b8152600401602060405180830381865afa925050508015610e7e575060408051601f3d908101601f19168201909252610e7b9181019061168a565b60015b610ea657604051634c9c8ce360e01b81526001600160a01b03831660048201526024016103aa565b5f5160206116a25f395f51905f528114610ed657604051632a87526960e21b8152600481018290526024016103aa565b610ee08383610f6b565b505050565b306001600160a01b037f00000000000000000000000000000000000000000000000000000000000000001614610df65760405163703e46dd60e11b815260040160405180910390fd5b5f82610f3a8584610fc0565b14949350505050565b5f807ff0c57e16840df040f15088dc2f81fe391c3923bec73e23a9662efc9c229c6a00610a9e565b610f7482611002565b6040516001600160a01b038316907fbc7cd75a20ee27fd9adebab32041f755214dbc6bffa90cc0225b39da2e5c2d3b905f90a2805115610fb857610ee08282611065565b6105d3611105565b5f81815b8451811015610ffa57610ff082868381518110610fe357610fe36114c7565b6020026020010151611124565b9150600101610fc4565b509392505050565b806001600160a01b03163b5f0361103757604051634c9c8ce360e01b81526001600160a01b03821660048201526024016103aa565b5f5160206116a25f395f51905f5280546001600160a01b0319166001600160a01b0392909216919091179055565b60605f6110728484611153565b905080801561109357505f3d118061109357505f846001600160a01b03163b115b156110a8576110a0611166565b915050610a9e565b80156110d257604051639996b31560e01b81526001600160a01b03851660048201526024016103aa565b3d156110e5576110e061117f565b6110fe565b60405163d6bda27560e01b815260040160405180910390fd5b5092915050565b3415610df65760405163b398979f60e01b815260040160405180910390fd5b5f81831061113e575f82815260208490526040902061114c565b5f8381526020839052604090205b9392505050565b5f5f5f835160208501865af49392505050565b6040513d81523d5f602083013e3d602001810160405290565b6040513d5f823e3d81fd5b80356001600160a01b03811681146111a0575f5ffd5b919050565b5f602082840312156111b5575f5ffd5b61114c8261118a565b5f81518084528060208401602086015e5f602082860101526020601f19601f83011685010191505092915050565b6020815281516020820152602082015160408201526040820151606082015261ffff606083015116608082015265ffffffffffff60808301511660a08201525f60a083015160c08084015261124460e08401826111be565b949350505050565b634e487b7160e01b5f52604160045260245ffd5b5f5f60408385031215611271575f5ffd5b61127a8361118a565b9150602083013567ffffffffffffffff811115611295575f5ffd5b8301601f810185136112a5575f5ffd5b803567ffffffffffffffff8111156112bf576112bf61124c565b604051601f8201601f19908116603f0116810167ffffffffffffffff811182821017156112ee576112ee61124c565b604052818152828201602001871015611305575f5ffd5b816020840160208301375f602083830101528093505050509250929050565b5f5f5f5f5f5f60a08789031215611339575f5ffd5b863595506020870135945060408701359350606087013561ffff8116811461135f575f5ffd5b9250608087013567ffffffffffffffff81111561137a575f5ffd5b8701601f8101891361138a575f5ffd5b803567ffffffffffffffff8111156113a0575f5ffd5b8960208284010111156113b1575f5ffd5b60208201935080925050509295509295509295565b5f602082840312156113d6575f5ffd5b5035919050565b5f5f604083850312156113ee575f5ffd5b6113f78361118a565b946020939093013593505050565b5f5f5f5f5f60808688031215611419575f5ffd5b6114228661118a565b94506020860135935060408601359250606086013567ffffffffffffffff81111561144b575f5ffd5b8601601f8101881361145b575f5ffd5b803567ffffffffffffffff811115611471575f5ffd5b8860208260051b8401011115611485575f5ffd5b959894975092955050506020019190565b602081525f61114c60208301846111be565b81810381811115610a9e57634e487b7160e01b5f52601160045260245ffd5b634e487b7160e01b5f52603260045260245ffd5b600181811c908216806114ef57607f821691505b60208210810361150d57634e487b7160e01b5f52602260045260245ffd5b50919050565b6020808252600990820152682737ba1037bbb732b960b91b604082015260600190565b601f821115610ee057805f5260205f20601f840160051c8101602085101561155b5750805b601f840160051c820191505b8181101561157a575f8155600101611567565b5050505050565b815167ffffffffffffffff81111561159b5761159b61124c565b6115af816115a984546114db565b84611536565b6020601f8211600181146115e1575f83156115ca5750848201515b5f19600385901b1c1916600184901b17845561157a565b5f84815260208120601f198516915b8281101561161057878501518255602094850194600190920191016115f0565b508482101561162d57868401515f19600387901b60f8161c191681555b50505050600190811b01905550565b86815285602082015261ffff8516604082015283606082015260a060808201528160a0820152818360c08301375f81830160c090810191909152601f909201601f1916010195945050505050565b5f6020828403121561169a575f5ffd5b505191905056fe360894a13ba1a3210667c828492db98dca3e2076cc3735a920a3ca505d382bbca2646970667358221220ceca19404c0ef89ec6355daf011a4f554fb69cf2ac8f912c9dcd9bd5420936e964736f6c634300081c0033",
  "linkReferences": {},
  "deployedLinkReferences": {}
}